:020000040800F2
:10000000900A002045010008BD0D000809070008FE
:10001000B90D00082D050008871C0008000000002D
:10002000000000000000000000000000991100081E
:100030003105000800000000450E000841130008CB
:100040005F0100085F0100085F0100085F01000810
:100050005F0100085F0100085F0100085F01000800
:100060005F0100085F0100085F0100085F010008F0
:100070005F0100085F0100085F0100085F010008E0
:100080005F0100085F0100085F0100085F010008D0
:100090005F0100085F0100085F0100085F010008C0
:1000A0005F010008091400085F0100085F010008F3
:1000B0005914000885140008051500085F010008A0
:1000C0005F0100085F0100085F0100085F01000890
:1000D0005F010008991800085F0100089D190008D9
:1000E0005F0100085F0100085F0100085F01000870
:1000F0005F0100085F0100085F0100085F01000860
:100100005F0100085F010008451500085F01000855
:100110005F010008751800085F0100085F01000812
:100120005F0100085F0100085F0100085F0100082F
:10013000DFF80CD000F022F9004800473D2000080D
:10014000900A00200648804706480047FEE7FEE781
:10015000FEE7FEE7FEE7FEE7FEE7FEE7FEE7FEE777
:100160004513000831010008D2B201E000F8012B6C
:10017000491EFBD270470022F6E710B513460A4627
:1001800004461946FFF7F0FF204610BDF0B480EAA0
:100190000102D40F4200B2EB410F02D202460846E0
:1001A00011464A0042D0C30DDDB2C1F3C752AD1AA9
:1001B000202D35DAC1F3160141F4000204B1524298
:1001C000C5F1200602FA06F12A411044B3EBD05FD4
:1001D00023D0C4B1012DA0EBC35009DCF0BC4FF01B
:1001E000004202EAC352DBB200F5000000F097B80B
:1001F000400000F1807000EBC350A0F1807040EA35
:10020000D170490009E0490841EAC071A0EBC35030
:1002100000F50000400800EBC350F0BC00F076B8D9
:100220006142012202EB4101001BF6E7F0BC70477E
:1002300081F00041AAE780F00040A7E780EA0102D0
:1002400010B502F00043400022D04A001FD0010E3A
:1002500001EB1261C0F35600C2F3560240F40000F5
:1002600042F40002A0FB022000047F39140400D0F5
:10027000401C50EA124001D44000491EC2B20C0694
:1002800004EBD010401C4008802A02D003E000207C
:1002900010BD20F00100002900DA0020184310BD35
:1002A000C10F80EAE0700844CA079623002100F0DD
:1002B00036B800F0004220F00040C10DC0F3160037
:1002C00040F400007F2901DA00207047962903DC02
:1002D000C1F19601C84001E096398840002AF4D067
:1002E00040427047002801DBC0F10040002901DBDB
:1002F000C1F1004181427047002801DBC0F100409C
:10030000002901DBC1F10041884270470029A8BFE4
:100310007047401C490008BF20F00100704710B42E
:10032000B0FA80FC00FA0CF050EA010404BF10BCE3
:10033000704749B1CCF1200421FA04F411FA0CF110
:1003400018BF012121430843A3EB0C01CB1D4FEA49
:1003500000614FEA102042BF002010BC704700EB44
:10036000C35010440029A4BF10BC7047401C490072
:1003700008BF20F0010010BC70470000064C074D7C
:1003800006E0E06840F0010394E807009847103465
:10039000AC42F6D3FFF7D0FE742200089422000886
:1003A00021B1826842F00102826003E0826822F09B
:1003B000010282607047000010B504461248844272
:1003C00008D10121401500F07BFD0021601500F0EF
:1003D00077FD17E00D48844208D10121001500F097
:1003E0006FFD0021201500F06BFD0BE008488442F2
:1003F00008D10121C80300F063FD00214FF4004043
:1004000000F05EFD10BD0000002401400028014006
:10041000003C0140014600208A6802F004020AB153
:10042000012000E000207047014600208A6802F0A9
:1004300008020AB1012000E00020704730B50246F2
:100440000020002350680F4C20400D790C6844EACE
:1004500005242043506090680B4C2040D1E90254A1
:100460002C434D7944EA450420439060D06A20F43F
:1004700070000C7C641EE4B2234340EA0350D06257
:1004800030BD0000FFFEF0FFFDF7F1FF816841F095
:10049000080181607047816841F004018160704704
:1004A00000B587B001214FF4047000F0F9FC4FF45F
:1004B000004000F0C9FC0120ADF8040000208DF8D8
:1004C000070001A9174800F047F81748FFF774FF25
:1004D000002002908DF80C008DF80D004FF4602084
:1004E00004900020059001208DF8180002A90E4804
:1004F000FFF7A4FF01210C48FFF752FF0A48FFF75E
:10050000C5FF00BF0848FFF78FFF0028FAD1064853
:10051000FFF7C1FF00BF0448FFF77CFF0028FAD1B6
:1005200007B000BD001001400024014000BFFEE7FD
:10053000704701B500200AE0002001E0411CC8B26C
:100540000A28FBDB9DF80010491EC9B200919DF8F6
:1005500000100029F0D108BD2DE9F0410246002528
:100560000026002000230024002791F803C00CF08F
:100570000F0591F803C00CF0100CBCF1000F03D074
:1005800091F802C04CEA050591F800C0BCF1000FDB
:1005900031D0146800202BE04FF0010C0CFA00F36E
:1005A000B1F800C00CEA03069E4220D183004FF050
:1005B0000F0C0CFA03F7BC4305FA03FC4CEA0404E5
:1005C00091F803C0BCF1280F06D14FF0010C0CFAD2
:1005D00000FCC2F814C00AE091F803C0BCF1480F57
:1005E00005D14FF0010C0CFA00FCC2F810C0401C01
:1005F0000828D1D31460B1F800C0BCF1FF0F34DD7E
:10060000546800202EE000F1080C4FF0010808FAB1
:100610000CF3B1F800C00CEA03069E4221D183001E
:100620004FF00F0C0CFA03F7BC4305FA03FC4CEA3D
:10063000040491F803C0BCF1280F05D100F1080CA7
:1006400008FA0CF8C2F8148091F803C0BCF1480F06
:1006500007D100F1080C4FF0010808FA0CF8C2F8B5
:100660001080401C0828CED35460BDE8F081000003
:10067000F0B50A46002300240021002500F00046C2
:10068000B6F1004F02D11D4EF16901E01B4E7168B9
:10069000C0F3034583B200F44016B6F5401F08D1FD
:1006A00021F07061154E766826F07066134F7E60FB
:1006B00012E000F48016B6F5801F06D1032606FA74
:1006C00005F4A14341F0706106E0460D360103FADE
:1006D00006F6B14341F0706122B1460D360103FACE
:1006E00006F6314300F00046B6F1004F02D1034E4A
:1006F000F16101E0014E7160F0BD000000000140B9
:10070000416170470161704700BFFEE7084880699A
:1007100040F01000064988610648006820F47F40D8
:10072000044908600846006840F44C50086070476F
:10073000001002400010014070B5044614480068E3
:1007400020F47040124908600846006840F44050A8
:10075000086000200F490860002516E0E0090D49F7
:10076000091D08606006040E0120FFF7E2FE01206B
:100770000949C1F88801FFF7DCFE0020054908603F
:100780000120FFF7D6FE681CC5B2082DE6DB70BD60
:1007900000100140880122420000224210B5164894
:1007A000006820F47040144908600846006840F46E
:1007B000405008600120114908601148D0F80C0130
:1007C00008B9002010BD01200C49091F0860FFF77F
:1007D000B0FE00200A49C1F88C0108488038006842
:1007E00008B10020EEE70220FFF7A3FE0020034936
:1007F000091F08600120E5E7001001408C0122423A
:100800000000224210B51048006820F470400E49E4
:1008100008600846006840F44050086000200B491A
:1008200008600B49C1F88C010220FFF782FE01200D
:1008300006490860FFF77DFE01200549C1F88C01DB
:100840000220FFF776FE10BD001001408801224211
:100850000000224210B500241548006820F47040C2
:10086000134908600846006840F400400860012011
:1008700010490860FFF75DFE01200F49C1F88801AB
:10088000FFF757FE0AE0601CC4B2322C03DDFFF70D
:10089000B9FF002010BD0120FFF74BFE054880384E
:1008A00000680028EFD10349091F08600120F1E723
:1008B000001001408C0122420000224200B587B0A6
:1008C00001214FF4047000F0EBFA4FF4004000F007
:1008D000BBFA0220ADF8040000208DF8070001A942
:1008E0001748FFF739FE1748FFF766FD0020029012
:1008F0008DF80C008DF80D004FF46020049000205E
:10090000059001208DF8180002A90E48FFF796FD0A
:1009100001210C48FFF744FD0A48FFF7B7FD00BF6F
:100920000848FFF781FD0028FAD10648FFF7B3FD1C
:1009300000BF0448FFF76EFD0028FAD107B000BDE4
:1009400000100140002401404FF07E510160002161
:1009500041608160C1600349016103494161002137
:1009600081617047BC74133CCDCCCC3D08B50121EE
:10097000082000F095FA4FF48050ADF800004820B0
:100980008DF8030069460248FFF7E6FD08BD000048
:10099000000C014038B505460C468EE04B48007807
:1009A00008286FD2DFE800F00410242C343C444CBB
:1009B0009DF80000FF2806D19DF80000444908700A
:1009C00001204249087077E09DF80000012803D01B
:1009D0009DF80000022807D19DF800003C494870AE
:1009E00002203A49087002E000203849087063E0AC
:1009F0009DF80000364988700320344908705BE098
:100A00009DF800003249C87004203049087053E056
:100A10009DF800002E49087105202C4908704BE014
:100A20009DF800002A49487106202849087043E0D3
:100A30009DF80000264988710720244908703BE092
:100A40009DF80000224AD0710020204A10702048F2
:100A5000C079FE2801D0002038BD1D4840781C4ACE
:100A6000927810441A4AD2781044194A12791044E4
:100A7000174A52791044C1B215488079884202D091
:100A80000020E9E714E01248407820711048C0784F
:100A90000F4A927840EA022000B220800C48407948
:100AA0000B4A127940EA022000B260800120D3E7AD
:100AB00000200649087000BF00BF6946284600F0C4
:100AC00079FA01283FF46AAF0020C5E71A00002038
:100AD0001B0000202DE9F04307AC94E8F010DDF88E
:100AE00030800160426083604FF00009C0F80C90D4
:100AF000C0F81090C0F814908461C5610662476226
:100B0000C0F828C0C0F82C8080F83090BDE8F08391
:100B10000021C160016180F8301070472DE9F84F65
:100B200004460D461646284601F0D5F88046E16A8F
:100B3000FFF7D8FB07D80020E060206184F8300080
:100B40006069BDE8F88F94F8300018B9256101207C
:100B500084F830002946E068FFF718FBE060D4E92C
:100B60000812E06801F056FAE06028462169FFF7B4
:100B70005FFB81464946A068FFF760FB0090E16893
:100B80006068FFF75BFB824629462068FFF756FB4B
:100B900083465146FFF7FAFA80460099FFF7F6FAC6
:100BA000074639463046FFF749FB0746A06A80F002
:100BB000004802464146384601F02CFA07463946BD
:100BC0006069FFF7E3FA6061D4E90612606901F039
:100BD00021FA606125616069B3E7000000B587B064
:100BE00019484FF08241194A194BCDE90232CDE93B
:100BF000041018481849194B194ACDE900104FF054
:100C00007A511848FFF766FF0F484FF082410F4AAC
:100C10000F4BCDE90232CDE90410134813490F4BB5
:100C20000F4ACDE900104FF07A511148FFF752FFFB
:100C300000201049086010490860104908701049E8
:100C4000087007B000BD0000000040400000A04256
:100C50000000A0C200002F4400002FC40AD7A33D0B
:100C6000A69B443BA800002000001644000016C4C8
:100C7000DC000020080000200C00002018000020EC
:100C8000190000202DE9FF47002604E0DDE90201FC
:100C9000CDE90001012602A93D48FFF77BFE0028AF
:100CA000F4D10EB9BDE8FF879DF80400022812D1E7
:100CB00038480078401C37490870084600780A28F0
:100CC00008DD0020344908703448FFF721FF34481C
:100CD000FFF71EFFE6E700202E490870BDF900006F
:100CE000FFF7DEFA0446BDF90200FFF7D9FA054620
:100CF0002948007838B92B4804602B48056001204A
:100D00002549087023E0274801682046FFF790FA3C
:100D100082464FF07A51FFF791FA07462148016861
:100D20003846FFF733FA1F4908601F480168284614
:100D3000FFF77EFA82464FF07A51FFF77FFA0746B7
:100D4000194801683846FFF721FA17490860174A21
:100D5000144801681148FFF7E1FE8046134A124823
:100D600001680F48FFF7DAFE81464046FFF7A1FA17
:100D70000746FFF795FA0E4908624846FFF799FAC9
:100D80000746FFF78DFA0B49086200BF8AE70000AB
:100D9000E40200201900002018000020A800002014
:100DA000DC000020080000200C000020000080BFB4
:100DB000340600205C06002000BFFEE770470000FC
:100DC00070B5002100230F22C47804B3154C2468A9
:100DD00004F4E064C4F5E064210AC1F10403CA40EC
:100DE000447804FA03F184781440214309010E4C3D
:100DF0000678A155047804F01F050124AC4005785D
:100E00006D11AD0005F1E025C5F8004109E0047859
:100E100004F01F050124AC40044D0678761145F816
:100E2000264070BD0CED00E000E400E080E100E051
:100E300002490143024A1160704700000000FA05B0
:100E40000CED00E07047000001460020034A5068A6
:100E500020F44040084350607047000000100240FA
:100E600029B1064AD2690243044BDA6104E0034A1D
:100E7000D2698243014BDA617047000000100240E2
:100E800029B1064A12690243044B1A6104E0034A7D
:100E900012698243014B1A61704700000010024042
:100EA00029B1064A92690243044B9A6104E0034A5D
:100EB00092698243014B9A61704700000010024022
:100EC00029B1064AD2680243044BDA6004E0034ABF
:100ED000D2688243014BDA60704700000010024084
:100EE00030B500210022002400232D4D6D6805F04F
:100EF0000C0121B1042905D0082923D105E0294D91
:100F0000056022E0274D05601FE0254D6D6805F462
:100F10007012234D6D6805F48034022505EB924272
:100F20001CB9214D554305600BE01D4D6D6805F45E
:100F300000351DB11C4D5543056002E0194D554368
:100F4000056002E0174D056000BF00BF144D6D68DD
:100F500005F0F0010909154D6B5C0568DD40456041
:100F60000F4D6D6805F4E061090A104D6B5C456832
:100F7000DD4085600A4D6D6805F46051C90A0B4D6E
:100F80006B5C4568DD40C560054D6D6805F440410A
:100F9000890B074D6B5CC568B5FBF3F5056130BD8A
:100FA0000010024000127A0000093D0038000020C5
:100FB0004800002010B50246908808B9002010BDF6
:100FC0001388901DC05C08701088401CC82390FBDB
:100FD000F3F403FB140010809088401E90800120E1
:100FE000EDE70021018041808180704710B5044603
:100FF0000CB9002000E0FF2002464FF400710248C7
:10100000FFF7B2F810BD00003204002010B540F622
:10101000C41400E0641E002CFCD1AE2200213C2050
:1010200001F010F9A62200213C2001F00BF9AE22BC
:1010300000213C2001F006F9D52200213C2001F0DE
:1010400001F9802200213C2001F0FCF8A8220021B7
:101050003C2001F0F7F81F2200213C2001F0F2F8BB
:10106000D32200213C2001F0EDF8002211463C2063
:1010700001F0E8F8402200213C2001F0E3F88D2245
:1010800000213C2001F0DEF8142200213C2001F078
:10109000D9F8202200213C2001F0D4F802220021BE
:1010A0003C2001F0CFF8A12200213C2001F0CAF839
:1010B000C82200213C2001F0C5F8DA2200213C20A2
:1010C00001F0C0F8022200213C2001F0BBF881228F
:1010D00000213C2001F0B6F8CF2200213C2001F095
:1010E000B1F8D92200213C2001F0ACF8F122002116
:1010F0003C2001F0A7F8DB2200213C2001F0A2F8FF
:10110000402200213C2001F09DF82E2200213C20AD
:1011100001F098F8A42200213C2001F093F8A622C7
:1011200000213C2001F08EF8AF2200213C2001F08C
:1011300089F80020FFF75AFF00F00AF80020034961
:10114000088048800120487110BD00008E000020FA
:1011500010B500241BE004F1B000C2B200213C2015
:1011600001F070F8002211463C2001F06BF81022CB
:1011700000213C2001F066F80648802101FB0402B2
:101180000B4640213C2001F067F8601CC4B2082CDB
:10119000E1DB10BD320400207047000008B50121DA
:1011A0000420FFF77DFE0120ADF8000010208DF82F
:1011B000030003208DF8020069461B48FFF7CCF9B5
:1011C00001210420FFF76CFE0220ADF80000102082
:1011D0008DF8030003208DF8020069461248FFF7DE
:1011E000BBF901210820FFF75BFE1020ADF80000DD
:1011F0008DF8030003208DF8020069460B48FFF7C5
:10120000ABF901210820FFF74BFE2020ADF80000CC
:1012100010208DF8030003208DF802006946034872
:10122000FFF79AF908BD000000080140000C0140DA
:1012300010B500F001F810BD0CB500200190009031
:101240003348006840F480303149086000BF3048BE
:10125000006800F4003000900198401C0190009854
:1012600018B90198B0F5A06FF1D12948006800F4D1
:10127000003010B10120009001E0002000900098A3
:10128000012843D12348006840F01000214908603C
:101290000846006820F0030008600846006840F037
:1012A000020008601A4840681949486008464068CA
:1012B00048600846406840F48060486008464068DE
:1012C00020F47C1048600846406840F4E81048600C
:1012D0000846006840F08070086000BF0C48006855
:1012E00000F000700028F9D00948406820F00300A1
:1012F000074948600846406840F00200486000BF67
:101300000348406800F00C000828F9D10CBD00002B
:101310000010024000200240042808D14FF0E021D4
:10132000096941F004014FF0E022116107E04FF03C
:10133000E021096921F004014FF0E02211617047BA
:101340007047000010B51348006840F001001149D3
:10135000086008464068104908400E494860084641
:1013600000680E4908400B4908600846006820F4F0
:10137000802008600846406820F4FE0048604FF472
:101380001F008860FFF754FF4FF0006004490860B9
:1013900010BD0000001002400000FFF8FFFFF6FE45
:1013A00008ED00E07FB504460D460121C802FFF7B5
:1013B00077FDADF80840681E80B2ADF8040000204B
:1013C000ADF80A00ADF806008DF80C0001221146B8
:1013D0000C4800F0F2F901210A4800F0CDF819207C
:1013E0008DF8000002208DF8010001208DF8020028
:1013F0008DF803006846FFF7E3FC0121014800F087
:10140000CAF87FBD002C014010B501210D4800F045
:10141000C3F9012811D10C49086AFEF74AFF0446B6
:1014200021460A4800F0C4FE0949086AFEF741FF58
:1014300004462146074800F0BBFE0121014800F0A8
:10144000A7F810BD002C0140340600205C000020ED
:101450005C0600206400002010B50121880700F020
:101460009BF958B10121880700F092F80448006800
:1014700020B103480068401E0149086010BD00000B
:101480007400002010B501211A4800F085F978B3E6
:101490000121184800F07CF817480068401C1649E4
:1014A0000860084600683C21B0FBF1F201FB120025
:1014B000B0B91248007808B9012000E000200F49B7
:1014C000087008460078002805DD4FF400510C48EC
:1014D000FFF718F904E04FF400510948FFF710F93D
:1014E00005480068B0F5967F02D3002002490860E5
:1014F00010BD000000040040780000207C000020A7
:101500000010014010B50121094800F045F90128FB
:1015100009D108488168084800F0C8FD074881687B
:10152000074800F0C3FD0121014800F031F810BD6B
:101530000008004010010020340600202C0100208B
:101540005C06002010B50121094800F025F90128AA
:1015500009D1084908700021054800F01CF8002155
:10156000034800F033F90121014800F011F810BDE3
:10157000000C00405000002021B1028842F080029F
:10158000028004E002884FF67F731A4002807047A1
:10159000CA430282704721B1028842F001020280F0
:1015A00004E002884FF6FE731A4002807047000084
:1015B00010B504466848844208D10121C014FFF7E1
:1015C0007FFC0021E014FFF77BFCC4E0B4F1804F06
:1015D00008D101210846FFF753FC00210120FFF745
:1015E0004FFCB8E05D48844208D101210220FFF79A
:1015F00047FC00210220FFF743FCACE0584884423E
:1016000008D101210420FFF73BFC00210420FFF753
:1016100037FCA0E05348844208D101210820FFF79D
:101620002FFC00210820FFF72BFC94E04E48844259
:1016300008D101211020FFF723FC00211020FFF723
:101640001FFC88E04948844208D101212020FFF78F
:1016500017FC00212020FFF713FC7CE04448844263
:1016600008D101214014FFF72BFC00216014FFF783
:1016700027FC70E03F48844209D10121C804FFF7EC
:101680001FFC00214FF40020FFF71AFC63E03A48EA
:10169000844209D101210805FFF712FC00214FF413
:1016A0008010FFF70DFC56E03448844209D1012137
:1016B0004805FFF705FC00214FF40010FFF700FC80
:1016C00049E02F48844208D101214020FFF7D8FB90
:1016D00000214020FFF7D4FB3DE02A48844208D196
:1016E00001218020FFF7CCFB00218020FFF7C8FB01
:1016F00031E02548844208D101218015FFF7C0FB65
:101700000021A015FFF7BCFB25E02048844209D149
:1017100001210804FFF7D4FB00214FF48030FFF7CC
:10172000CFFB18E01A48844209D101214804FFF791
:10173000C7FB00214FF40030FFF7C2FB0BE0154858
:10174000844208D101218804FFF7BAFB00214FF43D
:101750008020FFF7B5FB10BD002C014000040040C5
:1017600000080040000C0040001000400014004041
:1017700000340140004C0140005001400054014041
:1017800000180040001C00400020004000400140C4
:10179000004401400048014030B5024600200023CB
:1017A0000024158A05EA0103958905EA010413B1AD
:1017B0000CB1012000E0002030BD1AB183890B4339
:1017C000838102E083898B438381704781847047E2
:1017D000002202881D4B98420ED01D4B98420BD020
:1017E000B0F1804F08D01B4B984205D01A4B98425D
:1017F00002D01A4B984204D14FF68F731A404B888F
:101800001A43174B984207D0164B984204D04FF614
:10181000FF431A40CB881A4302808B8883850B884C
:1018200003850A4B98420BD0094B984208D00E4BC7
:10183000984205D00D4B984202D00D4B984201D1F1
:101840000B7A03860123838270470000002C01403D
:10185000003401400004004000080040000C00403B
:1018600000100040001400400040014000440140CE
:101870000048014010B540F22551064800F03EF9FD
:1018800030B1044800F0F6F9C4B2204600F094FAF2
:1018900010BD00000050004010B5002440F225515A
:1018A000054800F02BF930B1034800F0E3F9C4B269
:1018B000204600F003F810BD0038014010B5044682
:1018C00000BF8021044800F00CF90028F9D021461F
:1018D000014800F0D4F910BD0038014010B586B0C1
:1018E0000446012144F20400FFF7DAFA4FF40070D5
:1018F000ADF8140018208DF8170003208DF816009D
:1019000005A92348FEF728FE4FF48060ADF81400C7
:1019100004208DF8170005A91D48FEF71DFE01944F
:101920000020ADF80800ADF80A00ADF80C00ADF8E5
:1019300010000C20ADF80E0001A9164800F02EF999
:10194000002240F22771134800F002F9012240F210
:101950002551104800F0FCF840210E4800F0ACF88A
:1019600001210C4800F0B1F825208DF8000000207E
:101970008DF8010001208DF802008DF80300684603
:10198000FFF71EFA0448FFF72CFB06B010BD00005D
:1019900000080140003801401602002010B540F256
:1019A00025510F4800F0AAF870B10D4800F062F917
:1019B000C4B20C4804700C480068401C0A49086016
:1019C00021460A4800F061F940F22441044800F041
:1019D00095F818B1024800F04DF9C4B210BD0000EE
:1019E000004800408400002080000020E402002025
:1019F00010B586B0044601211120FFF751FA0121EC
:101A00008804FFF72DFA01212748FEF731FE4FF435
:101A10008060ADF8140018208DF8170003208DF8B1
:101A2000160005A92148FEF797FD4FF40060ADF8B8
:101A3000140004208DF8170005A91C48FEF78CFD42
:101A400027208DF8000000208DF8010001208DF87E
:101A500002008DF803006846FFF7B2F901940020F8
:101A6000ADF80800ADF80A00ADF80C00ADF81000B4
:101A70000C20ADF80E0001A90D4800F08FF80122EE
:101A800040F224410A4800F063F8012240F2255157
:101A9000074800F05DF80121054800F016F80548F8
:101AA000FFF79FFA06B010BD1000140000100140AF
:101AB00000480040E402002001F40072B2F5007F0B
:101AC00000D100BFCA430280704721B1828942F42D
:101AD0000052828104E082894DF6FF731A408281B0
:101AE000704702460020B1F5007F00D100BF138887
:101AF0000B400BB1012000E00020704770B502469A
:101B0000002400230025002040F66A16B14200D1CF
:101B100000BFC1F3421501F01F03012606FA03F3CB
:101B2000012D02D19689334006E0022D02D1168A9A
:101B3000334001E0968A33400C12012606FA04F481
:101B40001688344013B10CB1012000E0002070BDB4
:101B5000F0B50346002400260025002040F66A1751
:101B6000B94200D100BF1846C1F3421401F01F066C
:101B7000012707FA06F5012C01D10C3004E0022CF4
:101B800001D1103000E014301AB107682F4307600C
:101B900002E00768AF430760F0BD00002DE9F047A1
:101BA00086B005460E460024A24600BFA146002787
:101BB000B08900B100BF2F462C8A4CF6FF7004405C
:101BC000F08804432C82AC894EF6F3100440B088B0
:101BD00031890843718908430443AC81AC8A4FF6CC
:101BE000FF400440B0890443AC8201A8FFF778F9B4
:101BF0001F48874202D1DDF810A001E0DDF80CA0FB
:101C0000A88900F4004040B10AEBCA0000EB0A10BA
:101C100031684900B0FBF1F807E00AEBCA0000EBBD
:101C20000A1031688900B0FBF1F86420B8FBF0F0CD
:101C300004012009642101FB1089A88900F40040F7
:101C400040B1322000EBC900B0FBF1F000F007001A
:101C5000044308E0322000EB09106421B0FBF1F0EE
:101C600000F00F0004432C8106B0BDE8F0870000AF
:101C70000038014001468888C0F308007047C1F36E
:101C800008028280704700BFFEE710B502469088C8
:101C9000C82801DB002010BD5388901DC154508816
:101CA000401CC82390FBF3F403FB14005080908881
:101CB000401C90800120EEE702E008C8121F08C116
:101CC000002AFAD170477047002001E001C1121FBD
:101CD000002AFBD1704710B5044600212046FEF7CC
:101CE00001FB02D284F0004010BD2046FCE71FB586
:101CF00001210846FFF7B4F84FF08040FFF758FC89
:101D000040F2E730ADF8080040F2CF20ADF8040013
:101D10000020ADF80A00ADF8060001A94FF08040A0
:101D2000FFF756FD012211469007FFF746FD4FF4DD
:101D3000A060FFF77DF802208DF8010001208DF8EA
:101D400002001C208DF8000001208DF80300684679
:101D5000FFF736F801218807FFF71DFC1FBD10B5FE
:101D6000FFF7F0FA4FF4A060FFF762F800F08AF88E
:101D70004FF4487000F0ACF84FF4E130FFF7AEFDDF
:101D80004FF4E130FFF734FE482140F6F970FFF7D9
:101D900009FB00F0DDF9FFF701FA00F023F9FEF787
:101DA000E5FDFEF77DFBFEF789FDFEF7AFFC00F0D9
:101DB000FBF8FFF72BF910BD10B50446242C02D117
:101DC000012011490870232C0FD100200F49104A1F
:101DD000127888540E4908700B49087000F01AF800
:101DE0000A4800210160416001810748007801280C
:101DF00008D1064806490978445405480078401C33
:101E00000349087010BD00009500002084060020E2
:101E10009400002030B500BF00BF1848407840381B
:101E2000C2B2501EC51700EB5575C5F3C703C517E1
:101E300000EB5575ED10A0EBC505ECB20F488078AE
:101E40003038642568430D4DED78303D05EB850550
:101E500000EB4500094D2D792844303881B2002926
:101E600000DC0021B1F5877F01DB4FF48771044866
:101E700000EBC30040F82410002030BD8406002091
:101E80006C00002010B50E4800680E49B0FBF1F060
:101E9000C4B26FF00400FFF73FFAE11704EB517191
:101EA000C910094A11701046007800EB4001C1EBDF
:101EB000C0104FF6FF7101EAC0000449088010BD50
:101EC0002400002040420F004C0000204E00002063
:101ED00001460D4A12884A434FF0E0235A6100221E
:101EE0009A6101221A6100BF4FF0E022106900F0F0
:101EF00001021AB100F48032002AF5D000224FF01E
:101F0000E0231A619A6170474E00002001460D4A95
:101F100012784A434FF0E0235A6100229A6101226D
:101F20001A6100BF4FF0E022106900F001021AB1FF
:101F300000F48032002AF5D000224FF0E0231A612D
:101F40009A6170474C0000202DE9F04105460E468D
:101F500017469846FEF722FC10B90120BDE8F08133
:101F60006906080EFEF7E8FBFEF774FC18B9FEF7E9
:101F700049FC0120F2E73046FEF7DEFBFEF76AFC83
:101F800000240BE018F80400FEF7D6FBFEF762FC15
:101F900018B9FEF737FC0020E0E7641CBC42F1DB17
:101FA000FEF730FC0020D9E770B50025012413E0CE
:101FB000FEF7F4FB00B970BD6106080EFEF7BCFB2E
:101FC000FEF748FC00B906E0FEF71CFC681CC5B231
:101FD00003490C5500BF641C802CE9DB00BFEAE715
:101FE000B203002008B501210420FEF759FF4FF489
:101FF0008050ADF8000010208DF8030003208DF80C
:10200000020069460248FEF7A7FAFFF770FE08BD16
:102010000008014070B506460D461446214630467C
:10202000FEF76AF901D2204670BD29463046FEF718
:1020300059F901D22846F7E73046F5E7FFF78FFE5A
:102040001348FEF781FC1348FEF77EFC124800F0AF
:102050006DF8124800F06AF8FEF7C0FD0121104843
:10206000FFF733FD012211460E48FFF7A6FB0121C1
:102070000C48FFF790FA002201210B48FFF79DFB67
:1020800000210948FFF787FA01E0FEF7FBFDFCE7B6
:10209000100100202C010020340600205C060020E6
:1020A00000480040002C0140000800402DE9F047A6
:1020B00004460D462946E069FEF7BAF8E060E1689B
:1020C000A069FEF763F8A0611649A069FEF714F94C
:1020D00001D21448A0611449A069FEF703F901D2A6
:1020E0001148A061D4E90301FEF7A2F88046A16877
:1020F000FEF7A4F80646A1696068FEF79FF88046DF
:10210000E1682068FEF79AF881464146FEF73EF8FE
:1021100007463146FEF73AF82062E0682061206AFF
:10212000BDE8F08700C0DA4500C0DAC50021C16112
:102130000162016041608160C16001614161816152
:10214000012180F8241080F8251080F826107047AF
:102150001FB501210420FEF783FE42F20F70ADF897
:1021600008002320ADF804000020ADF80A00ADF807
:10217000060001A90D48FFF72BFB012211460B4871
:10218000FFF71BFB02208DF8010001208DF80200F3
:102190001E208DF8000001208DF803006846FEF730
:1021A0000FFE01210148FFF7F6F91FBD00080040AE
:1021B0002DE9F04104460E46E088304485B260883F
:1021C000A84201DA658803E0A088A84200DDA5885E
:1021D00025801948844215D101211848FEF792FA4A
:1021E0002846FFF793FE01211448FEF789FA4FF4C1
:1021F0007A7095FBF0F0C0F1140087B23846FFF713
:1022000067FE17E00E48844214D102210B48FEF706
:1022100079FA2846FFF77AFE02210848FEF770FA9D
:102220004FF47A7095FBF0F0C0F1140087B2384695
:10223000FFF74EFEBDE8F0815C0000200008014081
:102240006400002037B504460D4602AB0122294642
:102250002046FFF779FE3EBD2DE9F04106460F46C8
:1022600014461D46EAB2234639463046FFF76CFE57
:10227000BDE8F081942200080000002098000000D2
:10228000B81C00082C23000898000020F809000062
:10229000C81C000800000000000000000000000052
:1022A000000000000000000000000000000000002E
:1022B000000000000000000000A24A04000000002E
:1022C00000000000010203040607080900000000E6
:1022D00001020304010203040607080902040608B8
:1022E0000000000000000000000000000A000000E4
:1022F000DC0560095802DC05DC05FC08BC0230077F
:1023000000000000000000000000000000000000CD
:1023100001000000000000000000000000000000BC
:0C232000000000000000000000000000B1
:0400000508000131BD
:00000001FF
